:100000000C9434000C9451000C9451000C94510049
:100010000C9451000C9451000C9451000C9451001C
:100020000C9451000C9451000C9451000C9451000C
:100030000C9451000C9451000C9451000C945100FC
:100040000C9451000C9451000C9451000C945100EC
:100050000C9451000C9451000C9451000C945100DC
:100060000C9451000C94510011241FBECFEFD8E026
:10007000DEBFCDBF11E0A0E0B1E0EAEEF2E202C0E7
:1000800005900D92AA3BB107D9F721E0AAEBB1E0A8
:1000900001C01D92AE3BB207E1F70E9449080C94E3
:1000A00094100C94000081E090E09093BD01809347
:1000B000BC01089581E090E09093BB018093BA0168
:1000C00008958F929F92AF92BF92CF92DF92EF925C
:1000D000FF9249015A01A50194016B017C01C701FE
:1000E000B601FF90EF90DF90CF90BF90AF909F90C0
:1000F0008F900C942D0C4F925F926F927F928F9203
:100100009F92AF92BF92CF92DF92EF92FF920F93A6
:10011000CF93DF93CDB7DEB7A0970FB6F894DEBFCD
:100120000FBECDBF0E35B9F10D3209F480C00CF011
:1001300051C00A3209F463C00B3209F073C029833D
:100140003A834B835C8329813A814B815C816D8347
:100150007E838F8398876D817E818F8198850E94B1
:10016000100A6B017C01C701B601A0960FB6F89486
:10017000DEBF0FBECDBFDF91CF910F91FF90EF900B
:10018000DF90CF90BF90AF909F908F907F906F90B7
:100190005F904F90089549015A01A50194012B01E8
:1001A0003C01C301B201A0960FB6F894DEBF0FBEAA
:1001B000CDBFDF91CF910F91FF90EF90DF90CF9067
:1001C000BF90AF909F908F907F906F905F904F9077
:1001D0000C942D0C0F3231F5298F3A8F4B8F5C8F99
:1001E000298D3A8D4B8D5C8D6D8F7E8F8F8F98A36F
:1001F0006D8D7E8D8F8D98A10E94810AB2CF298B43
:100200003A8B4B8B5C8B29893A894B895C896D8B46
:100210007E8B8F8B988F6D897E898F89988D0E94B8
:10022000C00B9FCF60E070E080E090E09ACF29871C
:100230003A874B875C8729853A854B855C856D8736
:100240007E878F87988B6D857E858F8598890E94A4
:100250000F0A87CF4F925F926F927F928F929F92F9
:10026000AF92BF92CF92DF92EF92FF922BED3FE0E1
:1002700049E450E42B013C01C301B2010E94C00BD0
:1002800020E030E044E353E44B015C01C501B401DC
:100290000E94810A6B017C01C701B601FF90EF90BB
:1002A000DF90CF90BF90AF909F908F907F906F9096
:1002B0005F904F900C947D0C4F925F926F927F9263
:1002C0008F929F92AF92BF92CF92DF92EF92FF9266
:1002D0002BED3FE049E450E42B013C01C301B201A6
:1002E0000E94C00B20E030E044E353E44B015C018A
:1002F000C501B4010E94810A6B017C01C701B601EE
:10030000FF90EF90DF90CF90BF90AF909F908F9035
:100310007F906F905F904F900C947C0A4F925F9209
:100320006F927F928F929F92AF92BF92CF92DF9205
:10033000EF92FF922BED3FE049E450E42B013C01AA
:10034000C301B2010E94C00B20E030E044E353E45B
:100350004B015C01C501B4010E94810A6B017C0163
:10036000C701B601FF90EF90DF90CF90BF90AF90A4
:100370009F908F907F906F905F904F900C94850C22
:100380004F925F926F927F928F929F92AF92BF92A5
:10039000CF92DF92EF92FF920F93CF93DF93CDB77F
:1003A000DEB7A0970FB6F894DEBF0FBECDBF0D32FB
:1003B00009F485C06CF10F3209F46EC00E3509F0F6
:1003C00053C0298F3A8F4B8F5C8F298D3A8D4B8D7F
:1003D0005C8D6D8F7E8F8F8F98A36D8D7E8D8F8DB1
:1003E00098A1A0960FB6F894DEBF0FBECDBFDF91E7
:1003F000CF910F91FF90EF90DF90CF90BF90AF9093
:100400009F908F907F906F905F904F900C942D0CE9
:100410000A3279F10B3241F529013A01A301920127
:1004200069837A838B839C8369817A818B819C81A8
:100430000E94100A6B017C01C701B601A0960FB69D
:10044000F894DEBF0FBECDBFDF91CF910F91FF902B
:10045000EF90DF90CF90BF90AF909F908F907F9064
:100460006F905F904F90089560E070E080E090E0C2
:10047000E1CF29873A874B875C8729853A854B8569
:100480005C856D877E878F87988B6D857E858F8550
:1004900098890E94C00BCECF298B3A8B4B8B5C8BFB
:1004A00029893A894B895C896D8B7E8B8F8B988FDC
:1004B0006D897E898F89988D0E94810ABBCF490101
:1004C0005A01A50194016D837E838F8398876D8186
:1004D0007E818F8198850E940F0AACCF2F923F9228
:1004E0004F925F926F927F928F929F92AF92BF9244
:1004F000CF92DF92EF92FF920F931F93CF93DF93F0
:10050000CDB7DEB7A4970FB6F894DEBF0FBECDBF50
:100510008D8F9E8FED8DFE8D0190F081E02DFCA3DF
:10052000EBA3A12CB12C212C312CE12CF12C00E0DF
:1005300010E00CC06E3209F07DC0AA24A394B12C47
:100540008BA19CA1ED8DFE8D91838083EBA1FCA1FD
:100550006191FCA3EBA380ED860F8A3058F7062E3D
:10056000000C770B60537109072E000C880B990B58
:100570000E94F50A4B016C01A114B10409F43FC0BB
:10058000FFEF2F1A3F0AB101032C000C880B990BC7
:100590000E94F50A69837A838B839C8329813A813F
:1005A0004B815C8160E070E080E291E40E942D0C60
:1005B0006D837E838F8398872D813E814F815885FF
:1005C00089869A86CB86DC8669857A858B859C852B
:1005D0000E94810A6D877E878F87988B2D853E8547
:1005E0004F855889E98AFA8A0B8B1C8B69897A892D
:1005F0008B899C890E94100A7B018C01A1CF20E08D
:1006000030E040E251E4ED8AFE8A0F8B188F6D894D
:100610007E898F89988D0E94C00B24013601A30129
:100620009201698F7A8F8B8F9C8F698D7A8D8B8DDC
:100630009C8DE0CFEF8EF8A209A31AA36F8D78A14D
:1006400089A19AA1A4960FB6F894DEBF0FBECDBFC4
:10065000DF91CF911F910F91FF90EF90DF90CF909E
:10066000BF90AF909F908F907F906F905F904F90D2
:100670003F902F9008952D9887FD3FC0459886FFA5
:100680002CC0449A85FF2CC0439A84FF2CC0429A08
:100690002C9A95E09A95F1F700002C98EFE1F3E0A1
:1006A0003197F1F700C0000083FF25C0459A82FF13
:1006B00020C0449A81FF1BC0439A80FF16C0429A13
:1006C0002C9AF5E0FA95F1F700002C988FE39FE162
:1006D0000197F1F700C000000895449885FDD4CF3C
:1006E000439884FDD4CF4298D3CF4298E9CF439822
:1006F000E4CF4498DFCF4598DACF459AC0CF259A0A
:10070000249A3A9A3B9A3C9A3D9A2FEF89EF90E0CF
:10071000215080409040E1F700C0000083E30E9438
:100720003B0382E30E943B0388E20E943B038CE090
:100730000E943B0386E00E943B0381E00E943B0352
:100740008FE39FE10197F1F700C0000008952D9A13
:1007500087FD3FC0459886FF2CC0449A85FF2CC07A
:10076000439A84FF2CC0429A2C9A95E09A95F1F70F
:1007700000002C98EFE1F3E03197F1F700C00000A2
:1007800083FF25C0459A82FF20C0449A81FF1BC089
:10079000439A80FF16C0429A2C9AF5E0FA95F1F739
:1007A00000002C988FE39FE10197F1F700C0000053
:1007B0000895449885FDD4CF439884FDD4CF4298C2
:1007C000D3CF4298E9CF4398E4CF4498DFCF459800
:1007D000DACF459AC0CF2F923F924F925F926F929D
:1007E0007F928F929F92AF92BF92CF92DF92EF92C1
:1007F000FF920F931F93CF93DF93CDB7DEB7689728
:100800000FB6F894DEBF0FBECDBF7C01842F180158
:1008100069018E010F5E1F4F21E044E0482E552EE6
:100820003B01C301B2010E94F30D0051110924E004
:1008300048E041015601C501B4010E94F30D81E079
:100840000E943B038FE39FE10197F1F700C0000096
:10085000F7018081811551F0FFEFEF1AFF0A0E9426
:10086000A703F70181917F018111F9CF88E20E94EE
:10087000A7038989811551F08E010E5E1F4F0E94DA
:10088000A703F80181918F018111F9CF89E20E94BC
:10089000A70380EC0E943B038981811551F08E01F2
:1008A0000E5F1F4F0E94A703F80181918F018111F4
:1008B000F9CFFFEF27EA81E6F15020408040E1F7D1
:1008C00000C0000068960FB6F894DEBF0FBECDBF23
:1008D000DF91CF911F910F91FF90EF90DF90CF901C
:1008E000BF90AF909F908F907F906F905F904F9050
:1008F0003F902F9008954F925F926F927F928F92C8
:100900009F92AF92BF92CF92DF92EF92FF920F939E
:100910001F93CF93DF93CDB7DEB7C657D1090FB67C
:10092000F894DEBF0FBECDBF9A8B898BCE01419666
:100930000E946E026B017C01A988BA88D5011C91C6
:10094000111509F46CC0F5013196FA8BE98B133758
:1009500009F49AC0133609F4AAC0143709F031C15A
:1009600011968C91813609F097C081818E3609F0FD
:1009700093C08281883209F08FC0B4E0AB0EB11C05
:10098000BA8AA98ACE0141960E946E024B015C018F
:100990002BED3FE049E450E46F8B988E898FBA8E3F
:1009A0006F89788D898D9A8D0E94C00B20E030E090
:1009B00044E353E46B8F7C8F8D8F9E8F6B8D7C8D8A
:1009C0008D8D9E8D0E94810A6F8F78A389A39AA333
:1009D0006F8D78A189A19AA10E94850C6B017C0181
:1009E0006BA3DCA28DA3FEA20BA11CA12DA13EA195
:1009F0008FA298A6A9A6BAA64FA158A569A57AA5BF
:100A000081E291E00E94EB03A988BA88EFEFAE1A69
:100A1000BE0ABA8AA98AD5011C91111194CF8E0100
:100A20000F5F1F4F22E048E0CBA6DCA6EDA6FEA696
:100A30006BA57CA58DA59EA50E94F30D89818115CE
:100A400059F07E01B2E0EB0EF11C0E94A703F70102
:100A500081917F018111F9CFCA58DF4F0FB6F89409
:100A6000DEBF0FBECDBFDF91CF911F910F91FF90E1
:100A7000EF90DF90CF90BF90AF909F908F907F903E
:100A80006F905F904F90089511968C91893621F464
:100A900081818E3609F40AC1CE0141960E946E0210
:100AA000A988BA88C12CD12CE12CF12C47CF8081A8
:100AB0008F3691F78181833779F78281883261F7A8
:100AC000F4E0AF0EB11CBA8AA98ACE0141960E9409
:100AD0006E024B015C012BED3FE049E450E42496AB
:100AE0006FAF249725969FAE259726968FAF2697B2
:100AF0002796BFAE279727966CAD7DAD8EAD9FAD87
:100B000027970E94C00B20E030E044E353E428968E
:100B10006FAF289729967FAF29972A968FAF2A978C
:100B20002B969FAF2B972B966CAD7DAD8EAD9FAD69
:100B30002B970E94810A2C966FAF2C972D967FAF32
:100B40002D972E968FAF2E972F969FAF2F972F967C
:100B50006CAD7DAD8EAD9FAD2F970E947C0A6B0171
:100B60007C0160966FAF60976196DFAE6197629689
:100B70008FAF62976396FFAE639763960CAD1DAD22
:100B80002EAD3FAD639764968FAE649765969FAE2A
:100B900065976696AFAE66976796BFAE679767969E
:100BA0004CAD5DAD6EAD7FAD67978DE191E00E947C
:100BB000EB03A988BA888FEFA81AB80ABA8AA98A5B
:100BC000BDCECE0141960E946E02A988BA881E351C
:100BD00089F42B013C01A3019201CB8ADC8AED8AC6
:100BE000FE8A6B897C898D899E890E942D0C6B0100
:100BF0007C01A4CE1D3209F4E0C00CF0B2C01A3260
:100C000061F11B3209F04ECF68966FAF6897699615
:100C10007FAF69976A968FAF6A976B969FAF6B9716
:100C20006B962CAD3DAD4EAD5FAD6B976C96CFAE78
:100C30006C976D96DFAE6D976E96EFAE6E976F9672
:100C4000FFAE6F976F966CAD7DAD8EAD9FAD6F971C
:100C50000E94100A6B017C0171CEA8966FAFA89715
:100C6000A9967FAFA997AA968FAFAA97AB969FAF89
:100C7000AB97AB962CAD3DAD4EAD5FADAB97AC96A3
:100C8000CFAEAC97AD96DFAEAD97AE96EFAEAE976A
:100C9000AF96FFAEAF97AF966CAD7DAD8EAD9FAD0D
:100CA000AF970E94C00B6B017C0148CE82818832D5
:100CB00009F0F2CEB4E0AB0EB11CBA8AA98ACE011B
:100CC00041960E946E024B015C012BED3FE049E42E
:100CD00050E46FA798AA89ABBAAA6FA578A989A989
:100CE0009AA90E94C00B20E030E044E353E46BABD0
:100CF0007CAB8DAB9EAB6BA97CA98DA99EA90E94F4
:100D0000810A6FAB78AF89AF9AAF6FA978AD89AD23
:100D10009AAD0E947D0C6B017C016BAFDCAE8DAF98
:100D2000FEAE0BAD1CAD2DAD3EAD8FAE21969FAE90
:100D300021972296AFAE22972396BFAE2397239694
:100D40004CAD5DAD6EAD7FAD239789E191E00E9422
:100D5000EB03A988BA88EFEFAE1ABE0ABA8AA98A4D
:100D6000EDCD1F3209F09ECEE0966FAFE097E19691
:100D70007FAFE197E2968FAFE297E3969FAFE3975D
:100D8000E3962CAD3DAD4EAD5FADE397E496CFAEAF
:100D9000E497E596DFAEE597E696EFAEE697E79641
:100DA000FFAEE797E7966CAD7DAD8EAD9FADE79753
:100DB0000E94810A6B017C01C1CDA0966FAFA09704
:100DC000A1967FAFA197A2968FAFA297A3969FAF50
:100DD000A397A3962CAD3DAD4EAD5FADA397A49662
:100DE000CFAEA497A596DFAEA597A696EFAEA69731
:100DF000A796FFAEA797A7966CAD7DAD8EAD9FADC4
:100E0000A7970E940F0A6B017C0198CDEF92FF9289
:100E10000F931F93CF93DF93CDB7DEB760970FB6D5
:100E2000F894DEBF0FBECDBFFC019B017A0110819B
:100E3000133709F45BC01336B9F1143799F0103742
:100E400009F476C0153609F492C060960FB6F8948E
:100E5000DEBF0FBECDBFDF91CF911F910F91FF90ED
:100E6000EF90089585E0EFE2F1E0DE011196019048
:100E70000D928A95E1F7BE016F5F7F4FC9010E9415
:100E8000180EF701808191810396918380837E0102
:100E9000F2E0EF0EF11C812F0E94A703F7011191E0
:100EA0007F011111F8CFD1CF85E0EAE2F1E0DE0158
:100EB000119601900D928A95E1F7BE016F5F7F4F09
:100EC000C9010E94180EF7018081918103969183D8
:100ED00080837E01F2E0EF0EF11C812F0E94A703B8
:100EE000F70111917F011111F8CFAFCF85E0E5E255
:100EF000F1E0DE01119601900D928A95E1F7BE01B5
:100F00006F5F7F4FC9010E94180EF70180819181A8
:100F10000396918380837E01F2E0EF0EF11C812F16
:100F20000E94A703F70111917F011111F8CF8DCF16
:100F300083E38083DB010D900020E9F7119787E0C0
:100F4000E5E3F1E001900D928A95E1F7FA018081E5
:100F5000918105969183808305E311E083E30E94EC
:100F6000A703F80181918F018111F9CF6ECF82E340
:100F70008083DB010D900020E9F7119787E0EDE316
:100F8000F1E001900D928A95E1F7FA01808191815B
:100F90000596918380830DE311E082E30E94A7030D
:100FA000F80181918F018111F9CF4FCFCF93DF935A
:100FB000EC018881811531F021960E94A703899167
:100FC0008111FBCFDF91CF91089581E00E943B0317
:100FD0008FE39FE10197F1F700C000000895519A57
:100FE000529A539A549A559A579820982198229831
:100FF00023985F9A289A299A2A9A2B9A599A5A9A48
:101000005B9A5C9A5D9A0895E0E0F1E059985A9AEB
:101010005B9A5C9A20E030E05D9A85E38A95F1F76F
:10102000000080E04F9B8081189B8181199B828109
:101030001A9B83811B9B8481811125C02F5F3F4FA9
:101040003596599A25303105C9F02130310551F0D6
:101050005A9A2230310579F05B9A2330310531F408
:101060005C98DACF5A985B9A5C9AD6CF5C9A5D9876
:1010700024E030E0D2CF5B985C9ACECF5A9A5B9A4C
:101080005C9A5D9A0895599A5A9A5B9A5C9A5D9A0D
:101090000895CDB7DEB7E5970FB6F894DEBF0FBE63
:1010A000CDBFCE0101967C0182E3F70111928A95B2
:1010B000E9F71CAA1BAA0E947F030E94EF078EE794
:1010C00091E00E94D607FFEF27EA81E6F150204029
:1010D0008040E1F700C0000081E00E943B03EFE3A5
:1010E000FFE13197F1F700C000008FE891E00E9426
:1010F000D60780EC0E943B03BB24B3940E940408F3
:10110000182F8DAB8115D1F3833511F1813409F49A
:101110009DC0833409F4F0C08BA99CA9123409F452
:1011200070C01D3309F407C1C1970CF46EC0FFEF06
:1011300025EA8EE0F15020408040E1F700C0000039
:101140000E940408182F8DAB8115C1F28335F1F68A
:1011500081E02091BC013091BD01232B09F080E09A
:101160008093BC011092BD0181E00E943B038FE39C
:101170009FE10197F1F700C000008091BC019091C0
:10118000BD01892B09F4D2C094E4C92E91E0D92E77
:101190009FEFC91AD90A812F0E94A703F601119166
:1011A0006F011111F8CFFFEF23ED80E3F1502040E4
:1011B0008040E1F700C0000081E00E943B03EFE3C4
:1011C000FFE13197F1F700C0000000E911E085E48C
:1011D0000E94A703F80181918F018111F9CF80EC62
:1011E0000E943B038981811509F4A1CF8E010E5F16
:1011F0001F4F0E94A703F80181918F018111F9CF40
:1012000096CF181619060CF4D8C0AE014D5C5F4F8E
:10121000B701CE01C5960E9406078091BC0190914E
:10122000BD01892B09F4EFC0B092BC011092BD0141
:101230002BA93CA9C90101969CAB8BAB8DA92E0DA6
:101240003F1DF90180830E94A70371CF81E02091A7
:10125000BA013091BB01232B09F080E08093BA01E1
:101260001092BB0181E00E943B038FE39FE1019755
:10127000F1F700C000008091BA019091BB01892B69
:1012800009F498C081E691E001966C01812F0E94DB
:10129000A703F60111916F011111F8CFFFEF23EDB4
:1012A00080E3F15020408040E1F700C0000081E081
:1012B0000E943B03EFE3FFE13197F1F700C000002C
:1012C00000E911E085E40E94A703F80181918F01F4
:1012D0008111F9CF80EC0E943B038981811509F4CB
:1012E00026CF8E010E5F1F4F0E94A703F801819148
:1012F0008F018111F9CF1BCF81E00E943B038FE367
:101300009FE10197F1F700C0000000E911E085E4DA
:101310000E94A703F80181918F018111F9CF80EC20
:101320000E943B031CAA1BAA198201CF82E5C82E8A
:1013300081E0D82E2DCF8E0D9F1DFC01108281E003
:101340000E943B038FE39FE10197F1F700C000008B
:1013500003EB11E082E50E94A703F80181918F0160
:101360008111F9CF80EC0E943B03C7010E947B04EE
:101370001CAA1BAAFFEF2BE782E9F1502040804016
:10138000E1F700C0000081E00E943B03EFE3FFE1D2
:101390003197F1F700C0000000E911E085E40E94F8
:1013A000A703F80181918F018111F9CF80EC0E9490
:1013B0003B03BDCE8FE691E067CF01979CAB8BAB33
:1013C0008E0D9F1DFC01108280EC0E943B0302EAFF
:1013D00011E080E20E94A703F80181918F01811141
:1013E000F9CF80EC0E943B038981811509F49FCEDF
:1013F0008E010E5F1F4F0E94A703F80181918F019C
:101400008111F9CF94CE8091BA019091BB01892BC3
:1014100009F40ECFB092BA011092BB0109CF505817
:10142000BB27AA270E94270A0C94720B0E94390B33
:1014300038F00E94400B20F039F49F3F19F426F455
:101440000C94360B0EF4E095E7FB0C94300BE92F6F
:101450000E94970B58F3BA17620773078407950722
:1014600020F079F4A6F50C94B90B0EF4E0950B2E50
:10147000BA2FA02D0B01B90190010C01CA01A001E6
:101480001124FF27591B99F0593F50F4503E68F141
:101490001A16F040A22F232F342F4427585FF3CF82
:1014A000469537952795A795F0405395C9F77EF453
:1014B0001F16BA0B620B730B840BBAF09150A1F09C
:1014C000FF0FBB1F661F771F881FC2F70EC0BA0F22
:1014D000621F731F841F48F4879577956795B795AA
:1014E000F7959E3F08F0B0CF9395880F08F09927A5
:1014F000EE0F9795879508950E94490BE3950C94FC
:10150000830B0E94950A0C94720B0E94400B58F0BA
:101510000E94390B40F029F45F3F29F00C94300B06
:1015200051110C94BA0B0C94360B0E94970B68F374
:101530009923B1F3552391F3951B550BBB27AA278C
:1015400062177307840738F09F5F5F4F220F331FC6
:10155000441FAA1FA9F335D00E2E3AF0E0E832D08E
:1015600091505040E695001CCAF72BD0FE2F29D091
:10157000660F771F881FBB1F261737074807AB0763
:10158000B0E809F0BB0B802DBF01FF2793585F4FD8
:101590003AF09E3F510578F00C94300B0C94BA0B46
:1015A0005F3FE4F3983ED4F3869577956795B795BA
:1015B000F7959F5FC9F7880F911D9695879597F9C5
:1015C0000895E1E0660F771F881FBB1F621773073E
:1015D0008407BA0720F0621B730B840BBA0BEE1F53
:1015E00088F7E0950895E89409C097FB3EF490953C
:1015F0008095709561957F4F8F4F9F4F9923A9F0EC
:10160000F92F96E9BB279395F6958795779567957A
:10161000B795F111F8CFFAF4BB0F11F460FF1BC0BE
:101620006F5F7F4F8F4F9F4F16C0882311F096E951
:1016300011C0772321F09EE8872F762F05C06623FF
:1016400071F096E8862F70E060E02AF09A95660FB8
:10165000771F881FDAF7880F9695879597F9089571
:1016600097F99F6780E870E060E008959FEF80EC55
:10167000089500240A9416161706180609060895F8
:1016800000240A94121613061406050608950C94F5
:10169000360B0E949F0BD8F3E894E0E0BB279F57DE
:1016A000F0F02AED3FE049EC06C0EE0FBB0F661FDD
:1016B000771F881F28F0B23A62077307840728F063
:1016C000B25A620B730B840BE3959A9572F78038CC
:1016D00030F49A95BB0F661F771F881FD2F790488A
:1016E0000C94E60C092E0394000C11F4882352F09C
:1016F000BB0F40F4BF2B11F460FF04C06F5F7F4F3E
:101700008F4F9F4F0895EF93E0FF07C0A2EA2AEDA5
:101710003FE049EC5FEB0E94270A0E94720B0F909A
:10172000039401FC9058ECE2F1E20C94190D57FD82
:101730009058440F551F59F05F3F71F04795880F3F
:1017400097FB991F61F09F3F79F0879508951216D6
:1017500013061406551FF2CF4695F1DF08C0161682
:1017600017061806991FF1CF869571056105089433
:101770000895E894BB2766277727CB0197F908954A
:101780000E94D30B0C94720B0E94390B38F00E940C
:10179000400B20F0952311F00C94300B0C94360B79
:1017A00011240C94BA0B0E94970B70F3959FC1F310
:1017B000950F50E0551F629FF001729FBB27F00DFF
:1017C000B11D639FAA27F00DB11DAA1F649F662754
:1017D000B00DA11D661F829F2227B00DA11D621FA3
:1017E000739FB00DA11D621F839FA00D611D221F5D
:1017F000749F3327A00D611D231F849F600D211D41
:10180000822F762F6A2F11249F5750409AF0F1F0C3
:1018100088234AF0EE0FFF1FBB1F661F771F881F2C
:1018200091505040A9F79E3F510580F00C94300B29
:101830000C94BA0B5F3FE4F3983ED4F3869577950A
:101840006795B795F795E7959F5FC1F7FE2B880FD2
:10185000911D9695879597F90895FA01EE0FFF1F50
:10186000309621053105A1F16115710561F48038CB
:10187000BFE39B0749F168949038810561F0803897
:10188000BFEF9B0741F099234AF5FF3FE105310582
:10189000210519F1E8940894E795D901AA2329F4C0
:1018A000AB2FBE2FF85FD0F310C0FF5F70F4A6958A
:1018B000E0F7F73950F019F0FF3A38F49F779F932B
:1018C0000DD00F9007FC9058089546F00C94360BFD
:1018D00060E070E080E89FE308954FE79F775F93B3
:1018E0004F933F932F930E94770D2F913F914F91EC
:1018F0005F910E94C00B0C94B20C9F930E94490B05
:101900000F9007FCEE5F0C94830BDF93D92F0E949E
:10191000490BE695D7952AED3FE049E45FE3B33AFA
:101920006207730784079507D7953AF0A2EA49EC56
:1019300090680E94270A0E94720BEAE4F1E20E947A
:10194000190DDD0F13F00E942D0DDD0F0BF49058D3
:10195000DF91089529F416F00C94300B0C94B90B18
:101960000C94360B0E949F0BA8F39638A0F707F84B
:101970000F92E8942BE33AEA48EB5FE70E94D60B1C
:101980000F920F920F924DB75EB70F920E94BF0D4C
:10199000EDE6F1E20E94F20C4F915F91EF91FF9121
:1019A000E595EE1FFF1F49F0FE57E0684427EE0F54
:1019B000441FFA95E1F74195550B0E94390D0F90A0
:1019C00007FE0C942D0D08959F3F31F0915020F4A7
:1019D000879577956795B795880F911D969587950B
:1019E00097F90895DF93CF931F930F93FF92EF9290
:1019F000DF927B018C01689406C0DA2EEF010E9411
:101A0000D30BFE01E894A59125913591459155910F
:101A1000A6F3EF010E94270AFE019701A801DA94BC
:101A200069F7DF90EF90FF900F911F91CF91DF91B9
:101A300008959F938F937F936F93FF93EF939B01F1
:101A4000AC010E94C00BEF91FF910E94F20C2F910C
:101A50003F914F915F910C94C00B9B01AC0160E0F2
:101A600070E080E89FE30C94810A0C94300B0C9496
:101A7000E40C0E949F0BD8F39923C9F3940F511DD6
:101A8000A3F39150504094F059F0882332F0660F40
:101A9000771F881F91505040C1F79E3F51052CF78A
:101AA000880F911D9695879597F908955F3FACF043
:101AB000983E9CF0BB27869577956795B79508F477
:101AC000B1609395C1F7BB0F58F711F460FFE8CFF1
:101AD0006F5F7F4F8F4F9F4FE3CF0C94BA0B16F081
:101AE0000C94E40C0C94360B68940C94300B0E940C
:101AF0009F0BA8F39923C1F3AEF3DF93CF931F930A
:101B00000F93FF92C92FDD2788232AF02197660FB4
:101B1000771F881FDAF720E030E040E85FEB9FE3B3
:101B2000883920F0803E38F021968F770E94100A85
:101B3000E5E9F1E204C00E94100AE2ECF1E20E9441
:101B4000F20C8B01BE01EC01FB2E6F5771097595EC
:101B5000771F880B990B0E94F50A28E132E741E3D1
:101B60005FE30E94D30BAF2D9801AE01FF900F9160
:101B70001F91CF91DF910E94270A0C94720BFA01FA
:101B8000DC01AA0FBB1F9B01AC01BF5728F4222721
:101B900033274427507820C0B75190F4AB2F00244E
:101BA000469537952795011CA395D2F3002071F037
:101BB000220F331F441FB395DAF30ED00C940F0A93
:101BC00061307105A0E88A07B94630F49B01AC0189
:101BD0006627772788279078309621F020833183F5
:101BE0004283538308958F929F92AF92BF92EF9258
:101BF0000F931F93CF93322FC02F54E147FF54E030
:101C0000242F27FD2195E52E032F4C2F512F4B011B
:101C10005C01C501B4010E94230E8C2F912FCF913E
:101C20001F910F91EF90BF90AF909F908F9008956C
:101C3000FB01DC010D900020E9F7119701900D9256
:101C40000020E1F70895A0E1B0E0E9E2FEE00C94A5
:101C50005D106A01122FF02E202F3CE3031708F0CD
:101C60002BE32F5F288B022F27E0AE014F5F5F4FE2
:101C70006C877D878E879F876C857D858E859F8508
:101C80000E94850F5C019981892F8970813039F01C
:101C9000E0FA882785F9E1FE03C08BE201C08DE2FE
:101CA000292F2870BE2DB07193FF44C094E081119C
:101CB00001C093E09117C8F4191BB11519F18115F2
:101CC00019F0F60181936F01C601039631E62EE605
:101CD000E2FE02C031E42EE4F60120833183228348
:101CE000212F382F492F50E219C010E0E6CFF9011B
:101CF00041932F0191509F019111F9CFC10ED11C39
:101D000010E0DDCF912F960140E2F6CF632E742EC6
:101D1000F30151933F0121503E2F472D2111F6CF62
:101D2000810F911DFC0110828EEF9FEF6096E2E122
:101D30000C947910A92FA47092FF3EC094E08111F9
:101D400001C093E0911710F4212F291BB11529F13F
:101D5000811519F0F60181936F01C601039659E6CA
:101D60004EE636E6E2FE03C059E44EE436E4F60100
:101D7000508341833283322FAC0160E218C0832E3E
:101D8000942EF40151934F0191503E2F492D911102
:101D9000F6CFC20ED11C20E0DBCF922F3C2D4D2D73
:101DA00050E2F5CFFA0161931F013150AF013111BB
:101DB000F9CF820F911DB6CF9501B7FE02C020E08A
:101DC00030E061E070E0811102C060E070E0A901E4
:101DD0004F5F5F4F460F571F6F2D70E0FB0131962D
:101DE000F11002C0E0E0F0E04E0F5F1F4117510517
:101DF00014F4A12FA41B4E2D4871411155C0F601BA
:101E00004A2F50E241114DC0CA0ED11CA0E08115ED
:101E100031F0F6018193A42F6F01B11108C0F601D2
:101E20008A2F40E3811145C0CA0ED11CA0E08889E9
:101E30008A0D5A81B92FB07194FF03C0513309F450
:101E400081501816CCF5893008F088E0FE013196F3
:101E5000EA0DFB1D4F01821A930A7501E81AF10879
:101E60007195619571091EE2A216B3063CF1E21666
:101E7000F30624F5F401418121503109C601019690
:101E8000FFEF8F1A9F0A26173707D4F0F601408319
:101E90002F3F320721F4C6010296F60111836C012F
:101EA000E3CF51934150AECF811509F4B6CF4A2FFD
:101EB000B0CF41938150B6CF81E0C8CF40E3DCCFB3
:101EC000A216B30631F4563398F4553311F4B11514
:101ED00079F0F60140832A2F382F492F50E2211143
:101EE00009C08A0F911DFC01108280E090E01ECF96
:101EF00041E3EFCF3A874B87EA85FB855193FB8718
:101F0000EA8721503A854B85EACF283008F027E050
:101F10003327DA01990F311D87FD91600096610525
:101F2000710539F432602E5F3D9330E32A95E1F775
:101F300008959F3F30F080387105610509F03C5FDE
:101F40003C5F3D93913008F08068911DDF93CF9303
:101F50001F930F93FF92EF92192F987F9695E92F79
:101F600096959695E90FFF27E75BFD4D9927332757
:101F7000EE24FF24A701E70105900894079428F4B4
:101F8000360FE71EF81E491F511D660F771F881F69
:101F9000991F0694A1F70590079428F4E70EF81E00
:101FA000491F561FC11D770F881F991F661F069472
:101FB000A1F70590079428F4F80E491F561FC71F74
:101FC000D11D880F991F661F771F0694A1F70590F2
:101FD000079420F4490F561FC71FD81F990F661F7B
:101FE000771F881F0694A9F784911095177041F008
:101FF000D695C79557954795F794E7941A95C1F7E5
:10200000EFEEF1E2689415901591359165919591F7
:1020100005907FE27395E118F10A430B560BC90B4B
:10202000D009C0F7E10CF11E431F561FC91FD01D78
:102030007EF4703311F48A95E6CFE894015030F0C5
:10204000080F0AF40027021708F4202F2395022F07
:102050007A3328F079E37D932A95E9F710C07D93D0
:102060002A9589F60694979567953795179517944D
:10207000E118F10A430B560BC90BD00998F02395D0
:102080007E9173957A3308F070E37C932013B8F750
:102090007E9170617D9330F0839571E37D9370E361
:1020A0002A95E1F71124EF90FF900F911F91CF91A6
:1020B000DF91992787FD909508952F923F924F9237
:1020C0005F926F927F928F929F92AF92BF92CF92C8
:1020D000DF92EF92FF920F931F93CF93DF93CDB7D1
:1020E000DEB7CA1BDB0B0FB6F894DEBF0FBECDBF49
:1020F00009942A88398848885F846E847D848C841A
:102100009B84AA84B984C884DF80EE80FD800C8122
:102110001B81AA81B981CE0FD11D0FB6F894DEBF05
:102120000FBECDBFED010895F894FFCF05A84CCDAB
:10213000B2D44EB93836A9020C50B9918688083C01
:10214000A6AAAA2ABE000000803F0664EC1B3C043D
:10215000BC163E3BE5B93CC93C37C29E5A3D6604BD
:1021600098083EEA69AAAA3E000000803F07634241
:1021700036B79BD8A71A39685618AEBAAB558C1D1E
:102180003CB7CC5763BD6DEDFD753EF6177231BFA0
:10219000000000803F08000000BE922449123EABC0
:1021A000AAAA2ABECDCCCC4C3E00000080BEABAA71
:1021B000AAAA3E00000000BF000000803F0000000F
:1021C0000000084178D3BB4387D1133D190E3CC3AF
:1021D000BD4282AD2B3E68EC8276BED98FE1A93E2E
:1021E0004C80EFFFBE01C4FF7F3F000000000000F5
:1021F000407A10F35A00A0724E18090010A5D4E8D6
:102200000000E87648170000E40B54020000CA9A68
:102210003B000000E1F505000080969800000040BA
:10222000420F000000A086010000001027000000FF
:1022300000E803000000006400000000000A000045
:102240000000000100000000002C76D888DC674FF9
:102250000823DFC1DFAE59E1B1B796E5E3E453C629
:102260003AE651997696E8E6C28426EB898C9B6221
:10227000ED407C6FFCEFBC9C9F40F2BAA56FA5F4CB
:1022800090055A2AF75C936B6CF9676DC11BFCE0F3
:10229000E40D47FEF520E6B500D0ED902E03009446
:1022A0003577050080841E080000204E0A000000DB
:1022B000C80C333333330F986E12831141EF8D21E5
:1022C00014893BE65516CFFEE6DB18D1844B381B4C
:1022D000F77C1D901DA4BBE424203284725E228111
:0A22E00000C9F124ECA1E53D270040
:1022EA00534143423D313233343536373839302B56
:1022FA002D2A2F5E736374706573696E00636F7342
:10230A000074616E0073696E2800636F732800742D
:10231A00616E2800332E313431353900322E37318F
:10232A00383238005368696674206D6F6465204FCF
:10233A004E005368696674206D6F6465204F464687
:10234A0000416C706861206D6F6465204F4E0041DA
:10235A006C706861206D6F6465204F46460043616A
:10236A006C63756C61746F72207265616479004583
:10237A006E7465722065787072657373696F6E3AF0
:10238A000020202020202020202020202020202063
:0A239A002000526573756C743A0060
:00000001FF
